S00A000041322E73726563A7
S11300004DC067C066C065C064C063C062C061C0E3
S113001060C0B4C35EC05DC05CC05BC08EC459C068
S113002058C057C056C0A8C1ACC1ABC1AAC1A9C170
S1130030A8C1A7C1A6C1A5C1A4C1A3C1A2C1A1C190
S1130040A0C19DC19EC192C176C178C17AC17CC153
S11300507EC180C182C184C186C18BC192C191C15C
S113006090C18FC18EC18DC118C11AC11CC11EC1DE
S113007020C122C124C126C128C12AC12CC12EC13C
S113008030C132C134C136C138C13AC13CC13EC1AC
S113009040C142C144C146C148C14AC111241FBE26
S11300A0CFE5D4E0DEBFCDBF10E0A0E6B0E0E8E3EA
S11300B0FBE002C005900D92A036B107D9F711E01C
S11300C0A0E6B0E001C01D92AB36B107E1F796D4CB
S11300D031C596CF80E384BB8FEF81BB87EA91E67D
S11300E00197F1F700C0000080E285BBE3EFF1E087
S11300F03197F1F700C000009CE192BBE3EFF1E01F
S11301003197F1F700C0000015BAE3EFF1E0319741
S1130110F1F700C0000085BBE3EFF1E03197F1F7A0
S113012000C0000090EF92BBE3EFF1E03197F1F7EC
S113013000C0000015BAE3EFF1E03197F1F700C019
S1130140000085BB83EF91E00197F1F700C0000048
S113015080E682BBE3EFF1E03197F1F700C00000E5
S113016015BA089590E394BB8FEF81BBE7EAF1E6FB
S11301703197F1F700C0000080E285BBE3EFF1E0C6
S11301803197F1F700C000002CE122BBE3EFF1E06E
S11301903197F1F700C0000015BAE3EFF1E03197B1
S11301A0F1F700C0000085BBE3EFF1E03197F1F710
S11301B000C0000020EF22BBE3EFF1E03197F1F73C
S11301C000C0000015BAE3EFF1E03197F1F700C089
S11301D0000085BBE3EFF1E03197F1F700C00000C8
S11301E020E622BBE3EFF1E03197F1F700C0000015
S11301F015BAE3EFF1E03197F1F700C0000085BBD9
S1130200E3EFF1E03197F1F700C0000020E822BBF2
S1130210E3EFF1E03197F1F700C0000015BAE3EF26
S1130220F1E03197F1F700C0000085BBE3EFF1E0A6
S11302303197F1F700C0000020E422BBE3EFF1E0C6
S11302403197F1F700C0000015BAE3EFF1E0319700
S1130250F1F700C0000085BB95BB81EE94E00197E7
S1130260F1F700C000000895E1EEF4E03197F1F7F2
S113027000C0000090E395BBE1EEF4E03197F1F7A4
S113028000C0000090E080978B33910508F079C09E
S11302908D5E9F4F8F939F93089582E882BB71C0B8
S11302A082E482BB6EC082EC82BB6BC082E282BB02
S11302B068C082EA82BB65C082E682BB62C082EE0D
S11302C082BB5FC082E182BB5CC082E982BB59C051
S11302D082E582BB56C082ED82BB53C082E382BBFF
S11302E050C082EB82BB4DC082E782BB4AC082EF22
S11302F082BB47C08AE082BB44C08AE882BB41C05B
S11303008AE482BB3EC08AEC82BB3BC08AE282BBE9
S113031038C08AEA82BB35C08AE682BB32C08AEE24
S113032082BB2FC08AE182BB2CC08AE982BB29C070
S11303308AE582BB26C08CE882BB23C08CE482BBE6
S113034020C08CEC82BB1DC08CE282BB1AC08CEA3C
S113035082BB17C08CE682BB14C08CEE82BB11C07A
S11303608CE182BB0EC08CE982BB0BC08CE082BBEB
S113037008C08CE582BB05C084E082BB02C084E770
S113038082BB81EE94E00197F1F700C0000080E1A8
S113039085BBE1EEF4E03197F1F700C0000080E3A3
S11303A085BB08950F931F93CF93DF93109265003D
S11303B01092640080916A0090916B0081309105E5
S11303C061F580916E0090916F001816190654F42F
S11303D080E090E0019620916E0030916F008217CA
S11303E09307C4F3809170009091710060914A0169
S11303F070914B01615070408AD370936700609391
S11304006600109271001092700010924D011092CB
S11304104C0110926B0010926A00809166009091DA
S113042067002AE030E0B9015ED3C096909363017F
S1130430809362018091660090916700E09166006C
S1130440F091670004E610E0B8014DD3EC01CF0150
S1130450B90149D3AE01481B590BCA01B90143D3B1
S1130460605D7F4F709365016093640180916600C5
S1130470909167002091660030916700C8EED3E048
S1130480BE0131D3FC01C901B8012DD39F01281B42
S1130490390BC901B80127D3605D7F4F70936701A1
S11304A060936601809166009091670020916600D8
S11304B03091670060E177E216D3FC01C901BE0107
S11304C012D3AF01481B590BCA01BE010CD3605DA6
S11304D07F4F70936901609368018DE4C5DE8EE4FB
S11304E0C3DE8EE4C1DE8AE3BFDE809168019091B1
S11304F06901BADE8EE2B8DE8091660190916701EF
S1130500B3DE8091640190916501AEDE8091620159
S113051090916301A9DEDF91CF911F910F9108950E
S11305200F931F93CF93DF9388E49EDE82E59CDED6
S113053080916C0090916D0081309105C1F44091DF
S11305404801509149012CE330E0429FC001439F90
S1130550900D529F900D11246FE070E0D8D27093EB
S1130560690060936800109249011092480110924A
S11305706D0010926C0080916800909169002AE0EF
S113058030E0B901C4D2C09690935D0180935C01C0
S11305908091680090916900E0916800F091690091
S11305A0C4E6D0E0BE01B3D28C01CF01B901AFD211
S11305B0A801481B590BCA01B901A9D2605D7F4F3C
S11305C070935F0160935E0180916800909169006F
S11305D0209168003091690068EE73E098D2FC01C4
S11305E0C901BE0194D29F01281B390BC901BE0168
S11305F08ED2CB01C096909361018093600134DE6A
S113060080915E0131DE80915C012EDEDF91CF911D
S11306101F910F910895EF92FF920F931F93CF9321
S1130620DF9382E421DE20914C0130914D01EAE018
S1130630F0E0C901BF016BD2EC01C0969093570161
S11306408093560104E610E0C901B80160D27C0130
S11306508C1B9D0BBF015BD2605D7F4F7093590172
S113066060935801C90168EE73E051D28E199F0955
S1130670B8014DD2CB01C09690935B0180935A018F
S1130680F3DD80915801F0DD80915601EDDDDF91BD
S1130690CF911F910F91FF90EF9008950F931F93A7
S11306A0CF93DF9384E5E0DD209142013091430153
S11306B0CAE0D0E0C901BE012AD2FC01AC01405D10
S11306C05F4F50934F0140934E0104E610E0C9017F
S11306D0B8011DD28E1B9F0BBE0119D2605D7F4FE6
S11306E07093510160935001842FBEDD8AE3BCDD19
S11306F02091440130914501C901BE0108D2FC0199
S1130700C0969093530180935201C901B801FFD15F
S11307108E1B9F0BBE01FBD1CB01C096909355015C
S113072080935401A1DD809152019EDDDF91CF9130
S11307301F910F91089581EE94E00197F1F700C0A5
S1130740000080E285BB81EE94E00197F1F700C0E0
S1130750000083E082BB81EE94E00197F1F700C0D2
S1130760000015BA0895FEDC99DF80E27DDD53DFD9
S113077080E27ADDD5DEDFDF15DE08951F920F9269
S11307800FB60F9211242F933F934F935F936F9360
S11307907F938F939F93AF93BF93EF93FF9381EFD7
S11307A082BF809146019091470101969093470141
S11307B08093460180913A0190913B010196909378
S11307C03B0180933A01809146019091470123E0D7
S11307D0883E920704F1809144019091450101966D
S11307E0909345018093440180913E0190913F0193
S11307F0019690933F0180933E0180913C0190913A
S11308003D01019690933D0180933C011092470174
S113081010924601A8DF80913E0190913F018F30F4
S1130820910551F481E090E090936D0080936C0009
S113083010923F0110923E0180913C0190913D0144
S11308408430910551F481E090E090936B008093A3
S11308506A0010923D0110923C01809144019091F4
S113086045018C3391056CF08091420190914301D4
S11308700196909343018093420110924501109296
S1130880440180914201909143018C3391056CF0B5
S11308908091400190914101019690934101809390
S11308A040011092430110924201FF91EF91BF91D8
S11308B0AF919F918F917F916F915F914F913F91F4
S11308C02F910F900FBE0F901F901895809170007C
S11308D09091710020913A0130913B01820F931F56
S11308E09093710080937000E0916E00F0916F001E
S11308F080913A0190913B01EE0FFF1FEE58FF4F9C
S11309009183808310923B0110923A0180916E0092
S113091090916F008431910534F081E090E09093E0
S11309206F0080936E0080916E0090916F0001962D
S113093090936F0080936E0008951F920F920FB6EC
S11309400F9211242F933F934F935F936F937F9351
S11309508F939F93AF93BF93EF93FF9365B160938E
S11309606A0170E080E090E05BD02AE939E949E36C
S113097050E491D0181654F58FE788BB81E090E0DD
S11309809093610080936000809162009091630075
S11309908130910509F181E090E0909363008093A8
S11309A0620080914C0190914D01019690934D010C
S11309B080934C0180914801909149010196909354
S11309C049018093480182DFCEDE06C010926300A5
S11309D0109262008EEF88BB369AFF91EF91BF911F
S11309E0AF919F918F917F916F915F914F913F91C3
S11309F02F910F900FBE0F901F9018958FEF87BB0C
S1130A0081BB80E487B98DEC86B985E083BF12BED3
S1130A1081E089BF5FDB7894A6DEFECFE89409C04D
S1130A2097FB3EF490958095709561957F4F8F4F1D
S1130A309F4F9923A9F0F92F96E9BB279395F69533
S1130A40879577956795B795F111F8CFFAF4BB0FB1
S1130A5011F460FF1BC06F5F7F4F8F4F9F4F16C015
S1130A60882311F096E911C0772321F09EE8872F9F
S1130A70762F05C0662371F096E8862F70E060E05B
S1130A802AF09A95660F771F881FDAF7880F9695D4
S1130A90879597F9089503D008F48FEF0895990F77
S1130AA00008550FAA0BE0E8FEEF16161706E80734
S1130AB0F907C0F012161306E407F50798F0621B55
S1130AC0730B840B950B39F40A2661F0232B242B2A
S1130AD0252B21F408950A2609F4A140A6958FEF49
S1130AE0811D811D0895AA1BBB1B51E107C0AA1FCC
S1130AF0BB1FA617B70710F0A61BB70B881F991FBB
S1130B005A95A9F780959095BC01CD01089597FB5E
S1130B10092E07260AD077FD04D0E5DF06D0002091
S1130B201AF4709561957F4F0895F6F79095819525
S10B0B309F4F0895F894FFCFD4
S9030000FC
