S00A000041322E73726563A7
S113000066C080C07FC07EC07DC07CC07BC07AC01B
S113001079C0A0C177C076C075C074C0A5C172C0D4
S113002071C070C06FC07AC184C183C182C181C1F3
S113003080C17FC17EC17DC17CC17BC17AC179C1D0
S113004078C177C176C164C148C14AC14CC14EC1AF
S113005050C152C154C156C158C15DC16AC169C1C0
S113006068C167C166C165C1EAC0ECC0EEC0F0C03A
S1130070F2C0F4C0F6C0F8C0FAC0FCC0FEC000C1B3
S113008002C104C106C108C10AC10CC10EC110C11C
S113009012C114C116C118C11AC11CC14AC149C137
S11300A048C147C146C145C144C143C142C139C128
S11300B040C13FC13EC13DC13CC13BC13AC139C150
S11300C033C137C136C135C134C133C130C1112444
S11300D01FBECFE5D4E0DEBFCDBF10E0A0E6B0E0A8
S11300E0E6EDF5E002C005900D92A036B107D9F710
S11300F010E0A0E6B0E001C01D92A037B107E1F71F
S1130100CCD167C27DCF80E384BB8FEF81BB87EA0C
S113011091E60197F1F700C0000080E285BBE3EFB0
S1130120F1E03197F1F700C000009CE192BBE3EFEE
S1130130F1E03197F1F700C0000015BAE3EFF1E008
S11301403197F1F700C0000085BBE3EFF1E0319790
S1130150F1F700C0000090EF92BBE3EFF1E03197BC
S1130160F1F700C0000015BAE3EFF1E03197F1F7C1
S113017000C0000085BB83EF91E00197F1F700C058
S1130180000080E682BBE3EFF1E03197F1F700C0B5
S1130190000015BA089583EF91E00197F1F700C0CC
S11301A0000080E285BBE3EFF1E03197F1F700C096
S11301B0000090E892BBE3EFF1E03197F1F700C063
S11301C0000015BAE3EFF1E03197F1F700C0000049
S11301D085BBE3EFF1E03197F1F700C0000090E454
S11301E092BBE3EFF1E03197F1F700C0000015BADC
S11301F0E3EFF1E03197F1F700C0000085BB81EE39
S113020094E00197F1F700C000000895E1EEF4E0F6
S11302103197F1F700C0000090E395BBE1EEF4E004
S11302203197F1F700C0000090E080978435910584
S113023008F07FC08D5E9F4F8F939F93089582E84F
S113024082BB77C082E482BB74C082EC82BB71C083
S113025082E282BB6EC082EA82BB6BC082E682BB52
S113026068C082EE82BB65C082E182BB62C082E963
S113027082BB5FC082E582BB5CC082ED82BB59C099
S113028082E382BB56C082EB82BB53C082E782BB4F
S113029050C082EF82BB4DC08AE082BB4AC08AE86C
S11302A082BB47C08AE482BB44C08AEC82BB41C0A3
S11302B08AE282BB3EC08AEA82BB3BC08AE682BB3A
S11302C038C08AEE82BB35C08AE182BB32C08AE97B
S11302D082BB2FC08AE582BB2CC08CE882BB29C0BC
S11302E08CE482BB26C08CEC82BB23C08CE282BB34
S11302F020C08CEA82BB1DC08CE682BB1AC08CEE87
S113030082BB17C08CE182BB14C08CE982BB11C0D4
S11303108CE082BB0EC08CE582BB0BC084E082BB48
S113032008C086E282BB05C086EB82BB02C08EECAD
S113033082BB81EE94E00197F1F700C0000080E1F8
S113034085BBE1EEF4E03197F1F700C0000080E3F3
S113035085BB08951F920F920FB60F9211240F9030
S11303600FBE0F901F9018951F920F920FB60F9209
S11303701124EF92FF920F931F932F933F934F9368
S11303805F936F937F938F939F93AF93BF93CF9319
S1130390DF93EF93FF9365B160936F0070E080E0AB
S11303A090E08DD02DEC3CEC4CE45FE3C3D0181608
S11303B00CF055C08FE788BB81E090E0909361001A
S11303C08093600080916200909163008130910578
S11303D009F44BC081E090E0909363008093620045
S11303E02091680030916900C901019690936900D9
S11303F080936800EAE0F0E0C901BF01C3D08C013A
S1130400805D80936C00C4E6D0E0C901BE01BAD01F
S11304107C01801B910BBF01B5D0605D60936D00C2
S1130420C90168EE73E0AED08E199F09BE01AAD04F
S1130430605D60936E0067DEAEDEC6E0D1E0809161
S11304406E0090E0FE01099580916D0090E0FE0140
S1130450099580916C0090E0FE01099506C0109208
S11304606300109262008EEF88BB369AFF91EF9181
S1130470DF91CF91BF91AF919F918F917F916F91B8
S11304805F914F913F912F911F910F91FF90EF90AA
S11304900F900FBE0F901F9018958FEF87BB81BBF5
S11304A080E487B98FEC86B985E083BF12BE81E012
S11304B089BF29DE70DE7894FFCFE89409C097FBEA
S11304C03EF490958095709561957F4F8F4F9F4F27
S11304D09923A9F0F92F96E9BB279395F69587956B
S11304E077956795B795F111F8CFFAF4BB0F11F42E
S11304F060FF1BC06F5F7F4F8F4F9F4F16C08823D5
S113050011F096E911C0772321F09EE8872F762F0A
S113051005C0662371F096E8862F70E060E02AF04B
S11305209A95660F771F881FDAF7880F9695879537
S113053097F9089503D008F48FEF0895990F0008F0
S1130540550FAA0BE0E8FEEF16161706E807F907A1
S1130550C0F012161306E407F50798F0621B730B3C
S1130560840B950B39F40A2661F0232B242B252BBD
S113057021F408950A2609F4A140A6958FEF811D60
S1130580811D089597FB092E07260AD077FD04D014
S11305900CD006D000201AF4709561957F4F089511
S11305A0F6F7909581959F4F0895AA1BBB1B51E1C7
S11305B007C0AA1FBB1FA617B70710F0A61BB70BCF
S11305C0881F991F5A95A9F780959095BC01CD0174
S10905D00895F894FFCF2A
S9030000FC
