S00A000041322E73726563A7
S11300004DC067C066C065C064C063C062C061C0E3
S113001060C083C45EC05DC05CC05BC050C559C0D5
S113002058C057C056C0A8C1ACC1ABC1AAC1A9C170
S1130030A8C1A7C1A6C1A5C1A4C1A3C1A2C1A1C190
S1130040A0C19DC19EC192C176C178C17AC17CC153
S11300507EC180C182C184C186C18BC192C191C15C
S113006090C18FC18EC18DC118C11AC11CC11EC1DE
S113007020C122C124C126C128C12AC12CC12EC13C
S113008030C132C134C136C138C13AC13CC13EC1AC
S113009040C142C144C146C148C14AC111241FBE26
S11300A0CFE5D4E0DEBFCDBF10E0A0E6B0E0ECE2E7
S11300B0FEE002C005900D92A036B107D9F711E019
S11300C0A0E6B0E001C01D92A937B107E1F761D500
S11300D0ABC696CF80E384BB8FEF81BB87EA91E602
S11300E00197F1F700C0000080E285BBE3EFF1E087
S11300F03197F1F700C000009CE192BBE3EFF1E01F
S11301003197F1F700C0000015BAE3EFF1E0319741
S1130110F1F700C0000085BBE3EFF1E03197F1F7A0
S113012000C0000090EF92BBE3EFF1E03197F1F7EC
S113013000C0000015BAE3EFF1E03197F1F700C019
S1130140000085BB83EF91E00197F1F700C0000048
S113015080E682BBE3EFF1E03197F1F700C00000E5
S113016015BA089590E394BB8FEF81BBEFE4F3ECF1
S11301703197F1F700C0000080E285BBE3EFF1E0C6
S11301803197F1F700C000002CE122BBE3EFF1E06E
S11301903197F1F700C0000015BAE3EFF1E03197B1
S11301A0F1F700C0000085BBE3EFF1E03197F1F710
S11301B000C0000020EF22BBE3EFF1E03197F1F73C
S11301C000C0000015BAE3EFF1E03197F1F700C089
S11301D0000085BBE3EFF1E03197F1F700C00000C8
S11301E020E622BBE3EFF1E03197F1F700C0000015
S11301F015BAE3EFF1E03197F1F700C0000085BBD9
S1130200E3EFF1E03197F1F700C0000020E822BBF2
S1130210E3EFF1E03197F1F700C0000015BAE3EF26
S1130220F1E03197F1F700C0000085BBE3EFF1E0A6
S11302303197F1F700C0000020E422BBE3EFF1E0C6
S11302403197F1F700C0000015BAE3EFF1E0319700
S1130250F1F700C0000085BB95BB81EE94E00197E7
S1130260F1F700C000000895E1EEF4E03197F1F7F2
S113027000C0000090E395BBE1EEF4E03197F1F7A4
S113028000C0000090E080978B33910508F079C09E
S11302908D5E9F4F8F939F93089582E882BB71C0B8
S11302A082E482BB6EC082EC82BB6BC082E282BB02
S11302B068C082EA82BB65C082E682BB62C082EE0D
S11302C082BB5FC082E182BB5CC082E982BB59C051
S11302D082E582BB56C082ED82BB53C082E382BBFF
S11302E050C082EB82BB4DC082E782BB4AC082EF22
S11302F082BB47C08AE082BB44C08AE882BB41C05B
S11303008AE482BB3EC08AEC82BB3BC08AE282BBE9
S113031038C08AEA82BB35C08AE682BB32C08AEE24
S113032082BB2FC08AE182BB2CC08AE982BB29C070
S11303308AE582BB26C08CE882BB23C08CE482BBE6
S113034020C08CEC82BB1DC08CE282BB1AC08CEA3C
S113035082BB17C08CE682BB14C08CEE82BB11C07A
S11303608CE182BB0EC08CE982BB0BC08CE082BBEB
S113037008C08CE582BB05C084E082BB02C084E770
S113038082BB81EE94E00197F1F700C0000080E1A8
S113039085BBE1EEF4E03197F1F700C0000080E3A3
S11303A085BB08950F931F93CF93DF9380916400CF
S11303B0909165008130910509F04EC080917400E0
S11303C0909175001816190634F5A0E0B0E040E0ED
S11303D050E068E770E0FA01EE0FFF1FE60FF71F29
S11303E08081918120916C0030916D00821B930B70
S11303F0889F9001899F300D989F300D1124A20F82
S1130400B31F4F5F5F4F8091740090917500481740
S113041059070CF302C0A0E0B0E060917400709141
S1130420750061507040CD01ECD470936700609307
S113043066001092650010926400609166007091ED
S1130440670080E090E0E1D34ED4B3D3DC01CB016C
S113045090936B0080936A0080916A0090916B0086
S11304602AE030E0B901B9D4C09690936901809331
S1130470680180916A0090916B00E0916A00F091AC
S11304806B0004E610E0B801A8D4EC01CF01B90177
S1130490A4D4AE01481B590BCA01B9019ED4605DB6
S11304A07F4F70936B0160936A0180916A00909111
S11304B06B0020916A0030916B00E8EEF3E0BF011D
S11304C08CD4EC01C901B80188D49E01281B390BD6
S11304D0C901B80182D4605D7F4F70936D01609350
S11304E06C0180916A0090916B0020916A003091B8
S11304F06B0060E177E271D4EC01C901BF016DD4F6
S1130500AE01481B590BCA01BF0167D4605D7F4F20
S113051070936F0160936E0180E2A6DE83E5A4DE32
S113052084E4A2DE80916E0190916F019DDE8EE2E3
S11305309BDE80916C0190916D0196DE80916A0141
S113054090916B0191DE80916801909169018CDE3C
S1130550DF91CF911F910F9108950F931F93CF9324
S1130560DF9380917000909171008130910529F59D
S113057080917600909177006091500170915101C3
S1130580615070403ED470936D0060936C00109283
S1130590770010927600109251011092500110923F
S11305A0710010927000109275001092740081E036
S11305B090E0909365008093640080916C0090912A
S11305C06D002AE030E0B90108D4C096909371011F
S11305D08093700180916C0090916D00E0916C00AB
S11305E0F0916D0004E610E0B801F7D3EC01CF01FF
S11305F0B901F3D3AE01481B590BCA01B901EDD3BC
S1130600605D7F4F709373016093720180916C0001
S113061090916D0020916C0030916D00C8EED3E094
S1130620BE01DBD3FC01C901B801D7D39F01281B4C
S1130630390BC901B801D1D3605D7F4F7093750147
S11306406093740180916C0090916D0020916C0016
S113065030916D0060E177E2C0D3FC01C901BE01B5
S1130660BCD3AF01481B590BCA01BE01B6D3605DB0
S11306707F4F70937701609376018DE4F5DD8EE40E
S1130680F3DD8EE4F1DD8091760190917701ECDD6C
S11306908EE2EADD8091740190917501E5DD80912F
S11306A0720190917301E0DD80917001909171016C
S11306B0DBDDDF91CF911F910F9108950F931F936D
S11306C0CF93DF9388E4D0DD82E5CEDD80917200A4
S11306D09091730081309105C1F440914E01509185
S11306E04F012CE330E0429FC001439F900D529F85
S11306F0900D11246FE070E084D370936F006093C9
S11307006E0010924F0110924E01109273001092DD
S1130710720080916E0090916F002AE030E0B90180
S113072070D3C096909363018093620180916E00B0
S113073090916F00E0916E00F0916F00C4E6D0E0FC
S1130740BE015FD38C01CF01B9015BD3A801481B63
S1130750590BCA01B90155D3605D7F4F7093650190
S11307606093640180916E0090916F0020916E00FF
S113077030916F0068EE73E044D3FC01C901BE01FF
S113078040D39F01281B390BC901BE013AD3CB01C9
S1130790C096909367018093660166DD8091640141
S11307A063DD8091620160DDDF91CF911F910F9134
S11307B00895EF92FF920F931F93CF93DF9382E4F8
S11307C053DD2091520130915301EAE0F0E0C90178
S11307D0BF0117D3EC01C09690935D0180935C0137
S11307E004E610E0C901B8010CD37C018C1B9D0BFD
S11307F0BF0107D3605D7F4F70935F0160935E011B
S1130800C90168EE73E0FDD28E199F09B801F9D2CF
S1130810CB01C096909361018093600125DD8091A6
S11308205E0122DD80915C011FDDDF91CF911F917C
S11308300F91FF90EF9008950F931F93CF93DF9341
S113084084E512DD2091480130914901CAE0D0E0ED
S1130850C901BE01D6D2FC01AC01405D5F4F50938B
S113086055014093540104E610E0C901B801C9D20E
S11308708E1B9F0BBE01C5D2605D7F4F70935701E5
S113088060935601842FF0DC8AE3EEDC20914A0168
S113089030914B01C901BE01B4D2FC01C0969093C2
S11308A0590180935801C901B801ABD28E1B9F0B2B
S11308B0BE01A7D2CB01C09690935B0180935A01ED
S11308C0D3DC80915801D0DCDF91CF911F910F913F
S11308D0089581EE94E00197F1F700C0000080E2F2
S11308E085BB81EE94E00197F1F700C0000083E03E
S11308F082BB81EE94E00197F1F700C0000015BAC5
S1130900089530DC99DF80E2AFDC53DF80E2ACDCB9
S1130910D5DEDFDF22DE46DD08951F920F920FB68B
S11309200F9211242F933F934F935F936F937F9371
S11309308F939F93AF93BF93EF93FF9381EF82BF06
S113094080914C0190914D01019690934D018093BB
S11309504C01809140019091410101969093410195
S11309608093400180914C0190914D0123E0883E99
S1130970920704F180914A0190914B010196909362
S11309804B0180934A018091440190914501019665
S113099090934501809344018091420190914301D9
S11309A00196909343018093420110924D0110925D
S11309B04C01A7DF80914401909145018F3091054E
S11309C051F481E090E09093730080937200109250
S11309D04501109244018091420190914301843079
S11309E0910551F481E090E0909371008093700040
S11309F0109243011092420180914A0190914B015F
S1130A008C3391056CF080914801909149010196D5
S1130A10909349018093480110924B0110924A012E
S1130A2080914801909149018C3391056CF080913B
S1130A3046019091470101969093470180934601A6
S1130A401092490110924801FF91EF91BF91AF912B
S1130A509F918F917F916F915F914F913F912F91D2
S1130A600F900FBE0F901F90189580917600909173
S1130A7077002091400130914101820F931F9093A0
S1130A80770080937600E0917400F0917500809176
S1130A90400190914101EE0FFF1FE858FF4F9183F1
S1130AA080831092410110924001809174009091D2
S1130AB075000196909375008093740008951F92B9
S1130AC00F920FB60F9211242F933F934F935F937E
S1130AD06F937F938F939F93AF93BF93EF93FF9302
S1130AE065B16093780170E080E090E090D02AE9ED
S1130AF039E949E350E4EFD018169CF58FE788BB39
S1130B0081E090E0909361008093600080916200A6
S1130B10909163008130910551F181E090E09093D0
S1130B206300809362008091520190915301019679
S1130B3090935301809352018091500190915101FF
S1130B400196909351018093500180914E019091B0
S1130B504F01019690934F0180934E0186DFD1DEC1
S1130B6006C010926300109262008EEF88BB369A22
S1130B70FF91EF91BF91AF919F918F917F916F9171
S1130B805F914F913F912F910F900FBE0F901F9047
S1130B9018958FEF87BB81BB80E487B98DEC86B94C
S1130BA085E083BF12BE81E089BF94DA7894A9DE20
S1130BB0FECF70D088F09F5790F0B92F9927B75186
S1130BC0A0F0D1F0660F771F881F991F1AF0BA950D
S1130BD0C9F712C0B13081F077D0B1E0089574C084
S1130BE0672F782F8827B85F39F0B93FCCF3869503
S1130BF077956795B395D9F73EF490958095709560
S1130C0061957F4F8F4F9F4F0895E89409C097FBDC
S1130C103EF490958095709561957F4F8F4F9F4FCF
S1130C209923A9F0F92F96E9BB279395F695879513
S1130C3077956795B795F111F8CFFAF4BB0F11F4D6
S1130C4060FF1BC06F5F7F4F8F4F9F4F16C088237D
S1130C5011F096E911C0772321F09EE8872F762FB3
S1130C6005C0662371F096E8862F70E060E02AF0F4
S1130C709A95660F771F881FDAF7880F96958795E0
S1130C8097F9089557FD9058440F551F59F05F3F49
S1130C9071F04795880F97FB991F61F09F3F79F09A
S1130CA087950895121613061406551FF2CF46951C
S1130CB0F1DF08C0161617061806991FF1CF86959E
S1130CC07105610508940895E894BB276627772782
S1130CD0CB0197F9089545D008F48FEF089511F4E6
S1130CE00EF471C062C0D6DFD0F39923D9F3CEF3EA
S1130CF09F57550B87FF6AD00024A0E640EA900175
S1130D0080585695979528F4805C660F771F881F46
S1130D1020F026173707480730F4621B730B840B47
S1130D20202931294A2BA69517940794202531258B
S1130D304A2758F7660F771F881F20F026173707B2
S1130D40480730F4620B730B840B200D311D411DD9
S1130D50A09581F7B901842F9158880F96958795AE
S1130D600895990F0008550FAA0BE0E8FEEF161638
S1130D701706E807F907C0F012161306E407F5078B
S1130D8098F0621B730B840B950B39F40A2661F0FF
S1130D90232B242B252B21F408950A2609F4A140A2
S1130DA0A6958FEF811D811D08959F3F31F09150CD
S1130DB020F4879577956795B795880F911D96953B
S1130DC0879597F908959FEF80EC089591505040CE
S1130DD0660F771F881FD2F70895AA1BBB1B51E12A
S1130DE007C0AA1FBB1FA617B70710F0A61BB70B97
S1130DF0881F991F5A95A9F780959095BC01CD013C
S1130E00089597FB092E07260AD077FD04D0E5DF65
S1130E1006D000201AF4709561957F4F0895F6F777
S10F0E20909581959F4F0895F894FFCFA2
S9030000FC
